:030000000201D228
:0100030032CA
:03000B0002017877
:0100130032BA
:01001B0032B2
:0100230032AA
:03002B000201A22D
:10002E00C000788500D8FDD00022C000C00179281C
:10003E007868D8FED9FADAF6D001D00022D294121E
:10004E00002EC29422A2E79283A2E69282A2E592A9
:10005E0081A2E4928012004B12002EA2E39283A2A0
:10006E00E29282A2E19281A2E0928012004B22D211
:10007E0093020053C293020053C294C0027A281214
:10008E000038D0027433120082743312008274323C
:10009E001200827428120082740C120082740112F3
:1000AE000082C0027A02120038D00222E493600667
:1000BE0012007DA380F62244404480020082C0E0FC
:1000CE00E8C4540F443012007DE8540F443012003F
:1000DE007DD0E022436C6F636B3A30313A30303A68
:1000EE00303000436C6F636B00416C61726D3A305F
:1000FE00313A30303A303000416C61726D005469E3
:10010E006D65723A78783A78783A78782020005788
:10011E00617463683A78783A78783A787820200073
:10012E004C61703A78783A78783A787800202000E6
:10013E0020202020200020202020202020202020D1
:10014E00202020202020007365743A78783A787841
:10015E003A787800438E08E58954F04401F5898594
:10016E00398C85388AD2A9D28C22C28C85398C855D
:10017E00388AD28CB2923275C80075CDBF75CC2834
:10018E0043C98075CBBF75CA28E4F530F531439B62
:10019E0080D2CA22C2CFB284C0E0C0D00530E530D2
:1001AE0070020531E530B4E816E531B40311D20022
:1001BE00E4F530F531E532240180022499F532D090
:1001CE00D0D0E03275817F75B10075B20075B30085
:1001DE0075B40075AC0075AD00120162120185D2C6
:1001EE00AF120087C2A9C28CB2CA744012008274C8
:1001FE000012007D740012007D740112007D7402E5
:10020E0012007D741412007D740812007D740012A9
:10021E00007D740012007D740012007D74001200C7
:10022E007D740012007D740A12007D740412007D2C
:10023E00740A12007D740012007D740012007D7429
:10024E000012007D740012007D740012007D740097
:10025E0012007D740012007D740E12007D740E1259
:10026E00007D740012007D740012007D740E120069
:10027E007D740E12007D740E12007D740E12007DC0
:10028E00740E12007D740E12007D740012007D74C7
:10029E000012007D740012007D740412007D74083B
:1002AE0012007D741F12007D740812007D740412FA
:1002BE00007D740012007D741F12007D741F1200E9
:1002CE007D741F12007D741F12007D741F12007D3D
:1002DE00741F12007D741F12007D741F12007DC0EA
:1002EE00E07401141200C7D0E07401B4220280221F
:1002FE00B4110AC0E07401141200C5D0E0C0E0745D
:10030E000512007DD0E0C0027A19120038D0020426
:10031E0080D9E4C0E07401141200C7D0E0C083C0DD
:10032E0082C0E09001441200BAD0E0D082D083C0E7
:10033E00E07401141200C5D0E0C083C082C0E0900A
:10034E0001441200BAD0E0D082D083C0E074011410
:10035E001200C7D0E0C083C082C0E09000E212005D
:10036E00BAD0E0D082D083C0E07401141200C5D0A0
:10037E00E0C083C082C0E09000F71200BAD0E0D097
:10038E0082D083D200753200753300753401753A10
:10039E0000753500753600753701753B00C202C019
:1003AE00E0740F141200C7D0E0C0E0746112007D3B
:1003BE00D0E0C203C0E0740F141200C5D0E0C0E05C
:1003CE00746112007DD0E0D201C204D205D208C2FF
:1003DE0006C2077539C07538AED2CAE532B4600BA5
:1003EE00753200E4E5332401D4F533E533B4600B04
:1003FE00753300E4E5342401D4F534E534B4110248
:10040E00C208B4123220082FD208B202200215C040
:10041E00E0740F141200C7D0E0C0E0746112007DCA
:10042E00D0E08013C0E0740F141200C7D0E0C0E01B
:10043E00747012007DD0E0B41303753401200602EF
:10044E0080030206DE2007028003020500208502DB
:10045E008003020500C0027A32120038D0022085D5
:10046E000280030205003085FDB204200443C0E083
:10047E007401141200C7D0E0C083C082C0E09001A6
:10048E003E1200BAD0E0D082D083C0027AC81200E9
:10049E0038D002C0E07401141200C7D0E0C083C08F
:1004AE0082C0E09000F11200BAD0E0D082D08380FA
:1004BE0041C0E07401141200C5D0E0C083C082C0F8
:1004CE00E090013E1200BAD0E0D082D083C0027A12
:1004DE00C8120038D002C0E07401141200C5D0E07A
:1004EE00C083C082C0E09001061200BAD0E0D08274
:1004FE00D0832004030206DE20970280030206AD9D
:10050E00C0027A32120038D002209702800302060F
:10051E00AD3097FDB207200702800302060AC0E045
:10052E007401141200C7D0E0C083C082C0E09000F6
:10053E00E21200BAD0E0D082D0837532007533005B
:10054E00753401753500753600753701D2052002F8
:10055E0015C0E0740F141200C7D0E0C0E074611231
:10056E00007DD0E08013C0E0740F141200C7D0E0FD
:10057E00C0E0747012007DD0E0C0E074011412006F
:10058E00C5D0E0C083C082C0E09000F71200BAD0A0
:10059E00E0D082D083C0E07407141200C5D0E0C052
:1005AE0000A8371200CCD000C0E0740A141200C5A7
:1005BE00D0E0C000A8361200CCD000C0E0740D14FC
:1005CE001200C5D0E0C000A8351200CCD000200328
:1005DE0015C0E0740F141200C5D0E0C0E0746112B3
:1005EE00007DD0E08013C0E0740F141200C5D0E07F
:1005FE00C0E0747012007DD0E00206ADD205C0E0FE
:10060E007401141200C7D0E0C083C082C0E0900114
:10061E000C1200BAD0E0D082D083C0E07401141264
:10062E0000C5D0E0C083C082C0E09001441200BA81
:10063E00D0E0D082D083C0E07403141200C5D0E0A5
:10064E00C083C082C0E09001551200BAD0E0D082C3
:10065E00D0837532007533007534007535007536EC
:10066E0001753700C0E07407141200C5D0E0C00059
:10067E00A8371200CCD000C0E0740A141200C5D006
:10068E00E0C000A8361200CCD000C0E0740D1412E9
:10069E0000C5D0E0C000A8351200CCD000C2CA20E0
:1006AE00070302094220851CC0027A32120038D09C
:1006BE00022085103085FDC2CAD205753200753311
:1006CE0000753400200504D2CA8002C2CA020C1E74
:1006DE0020040280030208352097028003020835A9
:1006EE00C0027A32120038D002209702800302082C
:1006FE00353097FDB20620060280030207DFC0E008
:10070E007401141200C7D0E0C083C082C0E0900014
:10071E00E21200BAD0E0D082D08375320075330079
:10072E00753401200215C0E0740F141200C7D0E01A
:10073E00C0E0746112007DD0E08013C0E0740F142D
:10074E001200C7D0E0C0E0747012007DD0E0C0E0AF
:10075E007401141200C5D0E0C083C082C0E09000C6
:10076E00F71200BAD0E0D082D083C0E07407141222
:10077E0000C5D0E0C000A8371200CCD000C0E07495
:10078E000A141200C5D0E0C000A8361200CCD0006A
:10079E00C0E0740D141200C5D0E0C000A8351200E0
:1007AE00CCD000200315C0E0740F141200C5D0E0A9
:1007BE00C0E0746112007DD0E08013C0E0740F14AD
:1007CE001200C5D0E0C0E0747012007DD0E00208C7
:1007DE0035C0E07401141200C7D0E0C083C082C0DF
:1007EE00E090011D1200BAD0E0D082D083C0E07438
:1007FE0001141200C5D0E0C083C082C0E090014455
:10080E001200BAD0E0D082D08375320075330075F5
:10081E003400C0E07410141200C7D0E0C0E07401C0
:10082E0012007DD0E0C2CA20060302094220852DA7
:10083E00C0027A32120038D0022085213085FDC2E6
:10084E00CA753200753300753400C0E0741014128E
:10085E0000C7D0E0C0E0740112007DD0E020953CCE
:10086E00C0027A32120038D0022095303095FDB297
:10087E00CA20CA15C0E07410141200C7D0E0C0E040
:10088E00740112007DD0E08013C0E07410141200C9
:10089E00C7D0E0C0E0740012007DD0E020B064C08C
:1008AE00027A32120038D00220B05830B0FDC0E0CB
:1008BE007403141200C5D0E0C083C082C0E0900162
:1008CE002E1200BAD0E0D082D083C0E0740714128A
:1008DE0000C5D0E0C000A8341200CCD000C0E07437
:1008EE000A141200C5D0E0C000A8331200CCD0000C
:1008FE00C0E0740D141200C5D0E0C000A832120082
:10090E00CCD00020962BC0027A32120038D00220B2
:10091E00961F3096FDC0E07401141200C5D0E0C0E1
:10092E0083C082C0E09001441200BAD0E0D082D0E1
:10093E00830210562004028003020C1E20B0028097
:10094E0003020F21C0027A32120038D00220B00208
:10095E008003020F2130B0FDC0E07410141200C7E6
:10096E00D0E0C0E0740412007DD0E0C0E074071443
:10097E001200C7D0E0C083C082C0E090013B1200DD
:10098E00BAD0E0D082D083C0027AC8120038D0022A
:10099E00C0E07407141200C7D0E0C000A8341200E3
:1009AE00CCD000C2CA20B0028003020A96C0027ADE
:1009BE0032120038D00220B0028003020A9630B004
:1009CE00FDE4E53A2401F53AB40138C0E0740A14A6
:1009DE001200C7D0E0C083C082C0E090013B12007D
:1009EE00BAD0E0D082D083C0027AC8120038D002CA
:1009FE00C0E0740A141200C7D0E0C000A833120081
:100A0E00CCD000B40238C0E0740D141200C7D0E090
:100A1E00C083C082C0E090013B1200BAD0E0D08209
:100A2E00D083C0027AC8120038D002C0E0740D1410
:100A3E001200C7D0E0C000A8321200CCD000B40320
:100A4E0047C0E0740F141200C7D0E0C0E07420124B
:100A5E00007DD0E0C0027AC8120038D00220021504
:100A6E00C0E0740F141200C7D0E0C0E07461120031
:100A7E007DD0E08013C0E0740F141200C7D0E0C028
:100A8E00E0747012007DD0E0E53AB40055C0E07419
:100A9E0007141200C7D0E0C000A8341200CCD0005A
:100AAE0020971EC0027A32120038D00220971230E0
:100ABE0097FDE534B4120575340180052401D4F593
:100ACE003420961EC0027A32120038D002209612BE
:100ADE003096FDE534B4010575341280052499D4A1
:100AEE00F534E53AB40155C0E0740A141200C7D0CB
:100AFE00E0C000A8331200CCD00020971EC0027AAE
:100B0E0032120038D0022097123097FDE533B459D7
:100B1E000575330080052401D4F53320961EC002DE
:100B2E007A32120038D0022096123096FDE533B498
:100B3E00000575335980052499D4F533E53AB4028E
:100B4E0055C0E0740D141200C7D0E0C000A83212D8
:100B5E0000CCD00020971EC0027A32120038D0028C
:100B6E002097123097FDE532B45905753200800595
:100B7E002401D4F53220961EC0027A32120038D0EB
:100B8E00022096123096FDE532B40005753259807A
:100B9E00052499D4F532E53AB40353200215C0E08A
:100BAE00740F141200C7D0E0C0E0746112007DD043
:100BBE00E08013C0E0740F141200C7D0E0C0E074E0
:100BCE007012007DD0E0209711C0027A32120038E8
:100BDE00D0022097053097FDB202209611C0027AFE
:100BEE0032120038D0022096053096FDB202E53A58
:100BFE00B4040280030209B3753A00C0E074101405
:100C0E001200C7D0E0C0E0742012007DD0E0D2CA3E
:100C1E00200403020F2120B0028003020F21C00224
:100C2E007A32120038D00220B0028003020F213037
:100C3E00B0FDC0E07410141200C5D0E0C0E0740422
:100C4E0012007DD0E0C0E07407141200C5D0E0C0E1
:100C5E0083C082C0E090013B1200BAD0E0D082D0B7
:100C6E0083C0027AC8120038D002C0E07407141292
:100C7E0000C5D0E0C000A8371200CCD000C2CA20F8
:100C8E00B0028003020D73C0027A32120038D00215
:100C9E0020B0028003020D7330B0FDE4E53B240169
:100CAE00F53BB40138C0E0740A141200C5D0E0C0A0
:100CBE0083C082C0E090013B1200BAD0E0D082D057
:100CCE0083C0027AC8120038D002C0E0740A14122F
:100CDE0000C5D0E0C000A8361200CCD000B4023857
:100CEE00C0E0740D141200C5D0E0C083C082C0E015
:100CFE0090013B1200BAD0E0D082D083C0027AC8F5
:100D0E00120038D002C0E0740D141200C5D0E0C03D
:100D1E0000A8351200CCD00020074AB40347C0E02B
:100D2E00740F141200C5D0E0C0E0742012007DD004
:100D3E00E0C0027AC8120038D002200315C0E07459
:100D4E000F141200C5D0E0C0E0746112007DD0E037
:100D5E008013C0E0740F141200C5D0E0C0E07470B0
:100D6E0012007DD0E0E53BB4006BC0E074071412B6
:100D7E0000C5D0E0C000A8371200CCD000209729C3
:100D8E00C0027A32120038D00220971D3097FDE54E
:100D9E0037200708B4120D7537018006B499057512
:100DAE00370080052401D4F537209629C0027A3207
:100DBE00120038D00220961D3096FDE53720070828
:100DCE00B4010D7537128006B4000575379980058C
:100DDE002499D4F537E53BB40155C0E0740A1412DA
:100DEE0000C5D0E0C000A8361200CCD00020971E5F
:100DFE00C0027A32120038D0022097123097FDE5E9
:100E0E0036B4590575360080052401D4F536209682
:100E1E001EC0027A32120038D0022096123096FD91
:100E2E00E536B4000575365980052499D4F536E5B6
:100E3E003BB40255C0E0740D141200C5D0E0C000E2
:100E4E00A8351200CCD00020971EC0027A321200B4
:100E5E0038D0022097123097FDE535B45905753517
:100E6E000080052401D4F53520961EC0027A321278
:100E7E000038D0022096123096FDE535B400057587
:100E8E00355980052499D4F5352007028008E53BB5
:100E9E00B40362020F06E53BB40353200315C0E012
:100EAE00740F141200C5D0E0C0E0746112007DD042
:100EBE00E08013C0E0740F141200C5D0E0C0E074DF
:100ECE007012007DD0E0209711C0027A32120038E5
:100EDE00D0022097053097FDB203209611C0027AFA
:100EEE0032120038D0022096053096FDB203E53B53
:100EFE00B404028003020C8D753B00C0E074101424
:100F0E001200C5D0E0C0E0742012007DD0E02007B2
:100F1E0002D2CA209633C0027A32120038D0022092
:100F2E0096273096FDB201200111C2A9C28C7539E7
:100F3E00F075382CD28CD2A902102BC2A9C28C7596
:100F4E0039C07538AED28CD2A9209511C0027A3232
:100F5E00120038D0022095053095FDB205200554BB
:100F6E00200115C0E07410141200C7D0E0C0E07468
:100F7E000312007DD0E08013C0E07410141200C77D
:100F8E00D0E0C0E0740212007DD0E0E4E532B53569
:100F9E0036E533B53631E534B5372C20070D200252
:100FAE00052003238005200302801CD28CD2A9C207
:100FBE00CA020FE1C0E07410141200C7D0E0C0E006
:100FCE00742012007DD0E0C2A9C28C200702D2CAC2
:100FDE0002102B2005F1209511C0027A3212003832
:100FEE00D0022095053095FDD20520962DC0027AAF
:100FFE0032120038D0022096213096FDE4E53624D8
:10100E0005D4F536C0E0740A141200C5D0E0C00055
:10101E00A8361200CCD000020FD5020FE120051524
:10102E00C0E07410141200C5D0E0C0E074001200CD
:10103E007DD0E08013C0E07410141200C5D0E0C063
:10104E00E0740112007DD0E0C0E0740D141200C7F0
:10105E00D0E0C000A8321200CCD000C0E0740A1458
:10106E001200C7D0E0C000A8331200CCD000C0E000
:10107E007407141200C7D0E0C000A8341200CCD000
:0C108E00002000030203E9C2000203E995
:00000001FF
